{
  "_format": "hh3-artifact-1",
  "contractName": "CharityPlatform",
  "sourceName": "contracts/charity.sol",
  "abi": [
    {
      "inputs": [
        {
          "internalType": "address",
          "name": "_tokenAddress",
          "type": "address"
        }
      ],
      "stateMutability": "nonpayable",
      "type": "constructor"
    },
    {
      "anonymous": false,
      "inputs": [
        {
          "indexed": true,
          "internalType": "uint256",
          "name": "campaignId",
          "type": "uint256"
        },
        {
          "indexed": true,
          "internalType": "address",
          "name": "creator",
          "type": "address"
        },
        {
          "indexed": false,
          "internalType": "string",
          "name": "title",
          "type": "string"
        },
        {
          "indexed": false,
          "internalType": "uint256",
          "name": "targetAmount",
          "type": "uint256"
        },
        {
          "indexed": false,
          "internalType": "uint256",
          "name": "endTime",
          "type": "uint256"
        }
      ],
      "name": "CampaignCreated",
      "type": "event"
    },
    {
      "anonymous": false,
      "inputs": [
        {
          "indexed": true,
          "internalType": "uint256",
          "name": "campaignId",
          "type": "uint256"
        },
        {
          "indexed": false,
          "internalType": "uint256",
          "name": "newEndTime",
          "type": "uint256"
        }
      ],
      "name": "CampaignExtended",
      "type": "event"
    },
    {
      "anonymous": false,
      "inputs": [
        {
          "indexed": true,
          "internalType": "uint256",
          "name": "campaignId",
          "type": "uint256"
        },
        {
          "indexed": false,
          "internalType": "bool",
          "name": "isActive",
          "type": "bool"
        }
      ],
      "name": "CampaignStatusChanged",
      "type": "event"
    },
    {
      "anonymous": false,
      "inputs": [
        {
          "indexed": true,
          "internalType": "uint256",
          "name": "campaignId",
          "type": "uint256"
        },
        {
          "indexed": true,
          "internalType": "address",
          "name": "donor",
          "type": "address"
        },
        {
          "indexed": false,
          "internalType": "uint256",
          "name": "amount",
          "type": "uint256"
        },
        {
          "indexed": false,
          "internalType": "string",
          "name": "message",
          "type": "string"
        }
      ],
      "name": "DonationReceived",
      "type": "event"
    },
    {
      "anonymous": false,
      "inputs": [
        {
          "indexed": true,
          "internalType": "uint256",
          "name": "campaignId",
          "type": "uint256"
        },
        {
          "indexed": true,
          "internalType": "address",
          "name": "beneficiary",
          "type": "address"
        },
        {
          "indexed": false,
          "internalType": "uint256",
          "name": "amount",
          "type": "uint256"
        }
      ],
      "name": "FundsReleased",
      "type": "event"
    },
    {
      "inputs": [],
      "name": "campaignCounter",
      "outputs": [
        {
          "internalType": "uint256",
          "name": "",
          "type": "uint256"
        }
      ],
      "stateMutability": "view",
      "type": "function"
    },
    {
      "inputs": [
        {
          "internalType": "uint256",
          "name": "",
          "type": "uint256"
        },
        {
          "internalType": "uint256",
          "name": "",
          "type": "uint256"
        }
      ],
      "name": "campaignDonations",
      "outputs": [
        {
          "internalType": "address",
          "name": "donor",
          "type": "address"
        },
        {
          "internalType": "uint256",
          "name": "amount",
          "type": "uint256"
        },
        {
          "internalType": "uint256",
          "name": "timestamp",
          "type": "uint256"
        },
        {
          "internalType": "string",
          "name": "message",
          "type": "string"
        }
      ],
      "stateMutability": "view",
      "type": "function"
    },
    {
      "inputs": [
        {
          "internalType": "uint256",
          "name": "",
          "type": "uint256"
        },
        {
          "internalType": "uint256",
          "name": "",
          "type": "uint256"
        }
      ],
      "name": "campaignDonors",
      "outputs": [
        {
          "internalType": "address",
          "name": "",
          "type": "address"
        }
      ],
      "stateMutability": "view",
      "type": "function"
    },
    {
      "inputs": [
        {
          "internalType": "uint256",
          "name": "",
          "type": "uint256"
        }
      ],
      "name": "campaigns",
      "outputs": [
        {
          "internalType": "uint256",
          "name": "id",
          "type": "uint256"
        },
        {
          "internalType": "address",
          "name": "creator",
          "type": "address"
        },
        {
          "internalType": "string",
          "name": "title",
          "type": "string"
        },
        {
          "internalType": "string",
          "name": "description",
          "type": "string"
        },
        {
          "internalType": "string",
          "name": "imageHash",
          "type": "string"
        },
        {
          "internalType": "uint256",
          "name": "targetAmount",
          "type": "uint256"
        },
        {
          "internalType": "uint256",
          "name": "raisedAmount",
          "type": "uint256"
        },
        {
          "internalType": "address",
          "name": "beneficiary",
          "type": "address"
        },
        {
          "internalType": "uint256",
          "name": "startTime",
          "type": "uint256"
        },
        {
          "internalType": "uint256",
          "name": "endTime",
          "type": "uint256"
        },
        {
          "internalType": "bool",
          "name": "isActive",
          "type": "bool"
        },
        {
          "internalType": "bool",
          "name": "fundsReleased",
          "type": "bool"
        },
        {
          "internalType": "uint256",
          "name": "donorCount",
          "type": "uint256"
        }
      ],
      "stateMutability": "view",
      "type": "function"
    },
    {
      "inputs": [
        {
          "internalType": "string",
          "name": "_title",
          "type": "string"
        },
        {
          "internalType": "string",
          "name": "_description",
          "type": "string"
        },
        {
          "internalType": "string",
          "name": "_imageHash",
          "type": "string"
        },
        {
          "internalType": "uint256",
          "name": "_targetAmount",
          "type": "uint256"
        },
        {
          "internalType": "address",
          "name": "_beneficiary",
          "type": "address"
        },
        {
          "internalType": "uint256",
          "name": "_durationInDays",
          "type": "uint256"
        }
      ],
      "name": "createCampaign",
      "outputs": [
        {
          "internalType": "uint256",
          "name": "",
          "type": "uint256"
        }
      ],
      "stateMutability": "nonpayable",
      "type": "function"
    },
    {
      "inputs": [
        {
          "internalType": "uint256",
          "name": "_campaignId",
          "type": "uint256"
        },
        {
          "internalType": "uint256",
          "name": "_amount",
          "type": "uint256"
        },
        {
          "internalType": "string",
          "name": "_message",
          "type": "string"
        }
      ],
      "name": "donate",
      "outputs": [],
      "stateMutability": "nonpayable",
      "type": "function"
    },
    {
      "inputs": [
        {
          "internalType": "uint256",
          "name": "",
          "type": "uint256"
        },
        {
          "internalType": "address",
          "name": "",
          "type": "address"
        }
      ],
      "name": "donorContributions",
      "outputs": [
        {
          "internalType": "uint256",
          "name": "",
          "type": "uint256"
        }
      ],
      "stateMutability": "view",
      "type": "function"
    },
    {
      "inputs": [
        {
          "internalType": "uint256",
          "name": "_campaignId",
          "type": "uint256"
        }
      ],
      "name": "emergencyWithdraw",
      "outputs": [],
      "stateMutability": "nonpayable",
      "type": "function"
    },
    {
      "inputs": [
        {
          "internalType": "uint256",
          "name": "_campaignId",
          "type": "uint256"
        },
        {
          "internalType": "uint256",
          "name": "_additionalDays",
          "type": "uint256"
        }
      ],
      "name": "extendCampaign",
      "outputs": [],
      "stateMutability": "nonpayable",
      "type": "function"
    },
    {
      "inputs": [
        {
          "internalType": "uint256",
          "name": "_campaignId",
          "type": "uint256"
        }
      ],
      "name": "getCampaign",
      "outputs": [
        {
          "components": [
            {
              "internalType": "uint256",
              "name": "id",
              "type": "uint256"
            },
            {
              "internalType": "address",
              "name": "creator",
              "type": "address"
            },
            {
              "internalType": "string",
              "name": "title",
              "type": "string"
            },
            {
              "internalType": "string",
              "name": "description",
              "type": "string"
            },
            {
              "internalType": "string",
              "name": "imageHash",
              "type": "string"
            },
            {
              "internalType": "uint256",
              "name": "targetAmount",
              "type": "uint256"
            },
            {
              "internalType": "uint256",
              "name": "raisedAmount",
              "type": "uint256"
            },
            {
              "internalType": "address",
              "name": "beneficiary",
              "type": "address"
            },
            {
              "internalType": "uint256",
              "name": "startTime",
              "type": "uint256"
            },
            {
              "internalType": "uint256",
              "name": "endTime",
              "type": "uint256"
            },
            {
              "internalType": "bool",
              "name": "isActive",
              "type": "bool"
            },
            {
              "internalType": "bool",
              "name": "fundsReleased",
              "type": "bool"
            },
            {
              "internalType": "uint256",
              "name": "donorCount",
              "type": "uint256"
            }
          ],
          "internalType": "struct CharityPlatform.Campaign",
          "name": "",
          "type": "tuple"
        }
      ],
      "stateMutability": "view",
      "type": "function"
    },
    {
      "inputs": [],
      "name": "getCampaignCount",
      "outputs": [
        {
          "internalType": "uint256",
          "name": "",
          "type": "uint256"
        }
      ],
      "stateMutability": "view",
      "type": "function"
    },
    {
      "inputs": [
        {
          "internalType": "uint256",
          "name": "_campaignId",
          "type": "uint256"
        }
      ],
      "name": "getCampaignDonations",
      "outputs": [
        {
          "components": [
            {
              "internalType": "address",
              "name": "donor",
              "type": "address"
            },
            {
              "internalType": "uint256",
              "name": "amount",
              "type": "uint256"
            },
            {
              "internalType": "uint256",
              "name": "timestamp",
              "type": "uint256"
            },
            {
              "internalType": "string",
              "name": "message",
              "type": "string"
            }
          ],
          "internalType": "struct CharityPlatform.Donation[]",
          "name": "",
          "type": "tuple[]"
        }
      ],
      "stateMutability": "view",
      "type": "function"
    },
    {
      "inputs": [
        {
          "internalType": "uint256",
          "name": "_campaignId",
          "type": "uint256"
        }
      ],
      "name": "getCampaignDonors",
      "outputs": [
        {
          "internalType": "address[]",
          "name": "",
          "type": "address[]"
        }
      ],
      "stateMutability": "view",
      "type": "function"
    },
    {
      "inputs": [
        {
          "internalType": "uint256",
          "name": "_campaignId",
          "type": "uint256"
        }
      ],
      "name": "getCampaignProgress",
      "outputs": [
        {
          "internalType": "uint256",
          "name": "percentage",
          "type": "uint256"
        }
      ],
      "stateMutability": "view",
      "type": "function"
    },
    {
      "inputs": [
        {
          "internalType": "uint256",
          "name": "_campaignId",
          "type": "uint256"
        },
        {
          "internalType": "address",
          "name": "_donor",
          "type": "address"
        }
      ],
      "name": "getDonorContribution",
      "outputs": [
        {
          "internalType": "uint256",
          "name": "",
          "type": "uint256"
        }
      ],
      "stateMutability": "view",
      "type": "function"
    },
    {
      "inputs": [],
      "name": "getPlatformStats",
      "outputs": [
        {
          "internalType": "uint256",
          "name": "totalCampaigns",
          "type": "uint256"
        },
        {
          "internalType": "uint256",
          "name": "totalRaised",
          "type": "uint256"
        },
        {
          "internalType": "uint256",
          "name": "activeCampaigns",
          "type": "uint256"
        }
      ],
      "stateMutability": "view",
      "type": "function"
    },
    {
      "inputs": [
        {
          "internalType": "uint256",
          "name": "_campaignId",
          "type": "uint256"
        }
      ],
      "name": "isCampaignActive",
      "outputs": [
        {
          "internalType": "bool",
          "name": "",
          "type": "bool"
        }
      ],
      "stateMutability": "view",
      "type": "function"
    },
    {
      "inputs": [],
      "name": "owner",
      "outputs": [
        {
          "internalType": "address",
          "name": "",
          "type": "address"
        }
      ],
      "stateMutability": "view",
      "type": "function"
    },
    {
      "inputs": [
        {
          "internalType": "uint256",
          "name": "_campaignId",
          "type": "uint256"
        }
      ],
      "name": "releaseFunds",
      "outputs": [],
      "stateMutability": "nonpayable",
      "type": "function"
    },
    {
      "inputs": [
        {
          "internalType": "uint256",
          "name": "_campaignId",
          "type": "uint256"
        }
      ],
      "name": "toggleCampaignStatus",
      "outputs": [],
      "stateMutability": "nonpayable",
      "type": "function"
    },
    {
      "inputs": [],
      "name": "token",
      "outputs": [
        {
          "internalType": "contract IDRXToken",
          "name": "",
          "type": "address"
        }
      ],
      "stateMutability": "view",
      "type": "function"
    },
    {
      "inputs": [],
      "name": "totalDonations",
      "outputs": [
        {
          "internalType": "uint256",
          "name": "",
          "type": "uint256"
        }
      ],
      "stateMutability": "view",
      "type": "function"
    }
  ],
  "bytecode": "0x6080604052348015600e575f5ffd5b50604051612978380380612978833981016040819052602b916064565b60018054336001600160a01b0319918216179091555f80549091166001600160a01b03929092169190911781556002819055600355608f565b5f602082840312156073575f5ffd5b81516001600160a01b03811681146088575f5ffd5b9392505050565b6128dc8061009c5f395ff3fe608060405234801561000f575f5ffd5b506004361061013d575f3560e01c80636aeac029116100b4578063a1be44e011610079578063a1be44e01461030a578063de2ed8931461031d578063e1e3300914610326578063f25e1e9314610349578063fc0c546a1461035c578063fca604d71461036e575f5ffd5b80636aeac0291461028e5780636caa9218146102a157806370879ff7146102a95780638ab9b92a146102cc5780638da5cb5b146102df575f5ffd5b80633e2f2915116101055780633e2f2915146101eb5780634297457a146102155780634d68282f146102285780635167642f1461023b5780635312ea8e1461025b5780635598f8cc1461026e575f5ffd5b8063136d888314610141578063141961bc1461016957806316c3cdf514610195578063209b7d5f146101aa57806321196307146101ca575b5f5ffd5b610149610377565b604080519384526020840192909252908201526060015b60405180910390f35b61017c610177366004612130565b610413565b6040516101609d9c9b9a99989796959493929190612175565b6101a86101a33660046122c2565b610620565b005b6101bd6101b8366004612130565b610b19565b604051610160919061230e565b6101dd6101d8366004612374565b610bb2565b604051908152602001610160565b6101dd6101f9366004612426565b600660209081525f928352604080842090915290825290205481565b6101a8610223366004612130565b610f46565b6101a8610236366004612130565b611037565b61024e610249366004612130565b611301565b6040516101609190612450565b6101a8610269366004612130565b611451565b61028161027c366004612130565b611631565b60405161016091906124e7565b6101a861029c3660046125eb565b61192a565b6002546101dd565b6102bc6102b73660046125eb565b611a87565b604051610160949392919061260b565b6101dd6102da366004612130565b611b5d565b6001546102f2906001600160a01b031681565b6040516001600160a01b039091168152602001610160565b6101dd610318366004612426565b611e29565b6101dd60035481565b610339610334366004612130565b611e81565b6040519015158152602001610160565b6102f26103573660046125eb565b6120fc565b5f546102f2906001600160a01b031681565b6101dd60025481565b6002546003545f60015b600254811161040d5760405163e1e3300960e01b815260048101829052309063e1e3300990602401602060405180830381865afa1580156103c4573d5f5f3e3d5ffd5b505050506040513d601f19601f820116820180604052508101906103e89190612641565b156103fb57816103f781612674565b9250505b8061040581612674565b915050610381565b50909192565b60046020525f908152604090208054600182015460028301805492936001600160a01b03909216926104449061268c565b80601f01602080910402602001604051908101604052809291908181526020018280546104709061268c565b80156104bb5780601f10610492576101008083540402835291602001916104bb565b820191905f5260205f20905b81548152906001019060200180831161049e57829003601f168201915b5050505050908060030180546104d09061268c565b80601f01602080910402602001604051908101604052809291908181526020018280546104fc9061268c565b80156105475780601f1061051e57610100808354040283529160200191610547565b820191905f5260205f20905b81548152906001019060200180831161052a57829003601f168201915b50505050509080600401805461055c9061268c565b80601f01602080910402602001604051908101604052809291908181526020018280546105889061268c565b80156105d35780601f106105aa576101008083540402835291602001916105d3565b820191905f5260205f20905b8154815290600101906020018083116105b657829003601f168201915b5050505060058301546006840154600785015460088601546009870154600a880154600b90980154969794969395506001600160a01b0390921693909260ff80831692610100900416908d565b825f8111801561063257506002548111155b6106575760405162461bcd60e51b815260040161064e906126be565b60405180910390fd5b5f848152600460205260409020600a0154849060ff166106af5760405162461bcd60e51b815260206004820152601360248201527243616d706169676e206e6f742061637469766560681b604482015260640161064e565b5f818152600460205260409020600901544211156107045760405162461bcd60e51b815260206004820152601260248201527110d85b5c185a59db881a185cc8195b99195960721b604482015260640161064e565b5f8581526004602052604090208461075e5760405162461bcd60e51b815260206004820181905260248201527f446f6e6174696f6e20616d6f756e74206d75737420626520706f736974697665604482015260640161064e565b5f546040516370a0823160e01b815233600482015286916001600160a01b0316906370a0823190602401602060405180830381865afa1580156107a3573d5f5f3e3d5ffd5b505050506040513d601f19601f820116820180604052508101906107c791906126f5565b10156108155760405162461bcd60e51b815260206004820152601a60248201527f496e73756666696369656e7420746f6b656e2062616c616e6365000000000000604482015260640161064e565b5f54604051636eb1769f60e11b815233600482015230602482015286916001600160a01b03169063dd62ed3e90604401602060405180830381865afa158015610860573d5f5f3e3d5ffd5b505050506040513d601f19601f8201168201806040525081019061088491906126f5565b10156108cb5760405162461bcd60e51b8152602060048201526016602482015275496e73756666696369656e7420616c6c6f77616e636560501b604482015260640161064e565b5f546040516323b872dd60e01b8152336004820152306024820152604481018790526001600160a01b03909116906323b872dd906064016020604051808303815f875af115801561091e573d5f5f3e3d5ffd5b505050506040513d601f19601f820116820180604052508101906109429190612641565b6109865760405162461bcd60e51b8152602060048201526015602482015274151bdad95b881d1c985b9cd9995c8819985a5b1959605a1b604482015260640161064e565b84816006015f828254610999919061270c565b925050819055508460035f8282546109b1919061270c565b90915550505f8681526006602090815260408083203384529091528120549003610a1957600b81018054905f6109e683612674565b90915550505f8681526007602090815260408220805460018101825590835291200180546001600160a01b031916331790555b5f86815260066020908152604080832033845290915281208054879290610a4190849061270c565b90915550505f86815260056020908152604080832081516080810183523381528084018a815242938201938452606082018a815283546001808201865594885295909620825160049096020180546001600160a01b0319166001600160a01b0390961695909517855551918401919091559051600283015591516003820190610aca9082612771565b505050336001600160a01b0316867f3f82cd807839db80f9937063f26a2146e11e161b89613f94f6972cae64ea2e648787604051610b0992919061282c565b60405180910390a3505050505050565b6060815f81118015610b2d57506002548111155b610b495760405162461bcd60e51b815260040161064e906126be565b5f8381526007602090815260409182902080548351818402810184019094528084529091830182828015610ba457602002820191905f5260205f20905b81546001600160a01b03168152600190910190602001808311610b86575b505050505091505b50919050565b5f5f875111610bfb5760405162461bcd60e51b81526020600482015260156024820152745469746c652063616e6e6f7420626520656d70747960581b604482015260640161064e565b5f865111610c4b5760405162461bcd60e51b815260206004820152601b60248201527f4465736372697074696f6e2063616e6e6f7420626520656d7074790000000000604482015260640161064e565b5f8411610c9a5760405162461bcd60e51b815260206004820152601e60248201527f54617267657420616d6f756e74206d75737420626520706f7369746976650000604482015260640161064e565b6001600160a01b038316610cf05760405162461bcd60e51b815260206004820152601b60248201527f496e76616c69642062656e656669636961727920616464726573730000000000604482015260640161064e565b5f82118015610d01575061016d8211155b610d595760405162461bcd60e51b815260206004820152602360248201527f4475726174696f6e206d757374206265206265747765656e20312d333635206460448201526261797360e81b606482015260840161064e565b60028054905f610d6883612674565b909155505f9050610d7c836201518061284c565b610d86904261270c565b604080516101a081018252600280548083523360208085019182528486018f8152606086018f9052608086018e905260a086018d90525f60c087018190526001600160a01b038d811660e08901524261010089015261012088018a9052600161014089018190526101608901839052610180890183905295825260049093529690962085518155915192820180546001600160a01b03191693909116929092179091559251939450909290820190610e3e9082612771565b5060608201516003820190610e539082612771565b5060808201516004820190610e689082612771565b5060a0820151600582015560c0820151600682015560e08201516007820180546001600160a01b0319166001600160a01b039092169190911790556101008083015160088301556101208301516009830155610140830151600a8301805461016086015161ffff1990911692151561ff0019169290921791151590920217905561018090910151600b909101556002546040513391907fdc26653af5b99b2da33e2ad69ee6600d9aeccc82b034501db4338309615ca23890610f2f908c908a908790612863565b60405180910390a350506002549695505050505050565b805f81118015610f5857506002548111155b610f745760405162461bcd60e51b815260040161064e906126be565b5f82815260046020526040902060018101546001600160a01b0316331480610fa657506001546001600160a01b031633145b610fe35760405162461bcd60e51b815260206004820152600e60248201526d139bdd08185d5d1a1bdc9a5e995960921b604482015260640161064e565b600a8101805460ff8082161560ff19909216821790925560405191161515815283907f33641491749634f1bb4cfb02728199b749f89fca34cc54faf7e74bbb849108859060200160405180910390a2505050565b805f8111801561104957506002548111155b6110655760405162461bcd60e51b815260040161064e906126be565b5f82815260046020526040902060018101546001600160a01b031633148061109757506001546001600160a01b031633145b6110e35760405162461bcd60e51b815260206004820152601f60248201527f4e6f7420617574686f72697a656420746f2072656c656173652066756e647300604482015260640161064e565b5f81600601541161112c5760405162461bcd60e51b81526020600482015260136024820152724e6f2066756e647320746f2072656c6561736560681b604482015260640161064e565b600a810154610100900460ff161561117f5760405162461bcd60e51b8152602060048201526016602482015275119d5b991cc8185b1c9958591e481c995b19585cd95960521b604482015260640161064e565b806009015442116111cb5760405162461bcd60e51b815260206004820152601660248201527510d85b5c185a59db881b9bdd08195b991959081e595d60521b604482015260640161064e565b600a8101805461ffff19166101001790555f546007820154600683015460405163a9059cbb60e01b81526001600160a01b039283166004820152602481019190915291169063a9059cbb906044016020604051808303815f875af1158015611235573d5f5f3e3d5ffd5b505050506040513d601f19601f820116820180604052508101906112599190612641565b6112b15760405162461bcd60e51b8152602060048201526024808201527f546f6b656e207472616e7366657220746f2062656e65666963696172792066616044820152631a5b195960e21b606482015260840161064e565b600781015460068201546040519081526001600160a01b039091169084907f6e3c6096795c8298a218b2cfb8bde42726ff7c9a3d27b4d3ba41ab7f74feb5fb9060200160405180910390a3505050565b6060815f8111801561131557506002548111155b6113315760405162461bcd60e51b815260040161064e906126be565b5f83815260056020908152604080832080548251818502810185019093528083529193909284015b82821015611445575f848152602090819020604080516080810182526004860290920180546001600160a01b031683526001810154938301939093526002830154908201526003820180549192916060840191906113b69061268c565b80601f01602080910402602001604051908101604052809291908181526020018280546113e29061268c565b801561142d5780601f106114045761010080835404028352916020019161142d565b820191905f5260205f20905b81548152906001019060200180831161141057829003601f168201915b50505050508152505081526020019060010190611359565b50505050915050919050565b6001546001600160a01b031633146114b55760405162461bcd60e51b815260206004820152602160248201527f4f6e6c79206f776e65722063616e2063616c6c20746869732066756e6374696f6044820152603760f91b606482015260840161064e565b5f818152600460205260409020600681015461150a5760405162461bcd60e51b81526020600482015260146024820152734e6f2066756e647320746f20776974686472617760601b604482015260640161064e565b600a810154610100900460ff161561155d5760405162461bcd60e51b8152602060048201526016602482015275119d5b991cc8185b1c9958591e481c995b19585cd95960521b604482015260640161064e565b600a8101805461ffff19166101001790555f54600154600683015460405163a9059cbb60e01b81526001600160a01b039283166004820152602481019190915291169063a9059cbb906044016020604051808303815f875af11580156115c5573d5f5f3e3d5ffd5b505050506040513d601f19601f820116820180604052508101906115e99190612641565b61162d5760405162461bcd60e51b8152602060048201526015602482015274151bdad95b881d1c985b9cd9995c8819985a5b1959605a1b604482015260640161064e565b5050565b6116a8604051806101a001604052805f81526020015f6001600160a01b031681526020016060815260200160608152602001606081526020015f81526020015f81526020015f6001600160a01b031681526020015f81526020015f81526020015f151581526020015f151581526020015f81525090565b815f811180156116ba57506002548111155b6116d65760405162461bcd60e51b815260040161064e906126be565b5f8381526004602090815260409182902082516101a0810184528154815260018201546001600160a01b03169281019290925260028101805492939192918401916117209061268c565b80601f016020809104026020016040519081016040528092919081815260200182805461174c9061268c565b80156117975780601f1061176e57610100808354040283529160200191611797565b820191905f5260205f20905b81548152906001019060200180831161177a57829003601f168201915b505050505081526020016003820180546117b09061268c565b80601f01602080910402602001604051908101604052809291908181526020018280546117dc9061268c565b80156118275780601f106117fe57610100808354040283529160200191611827565b820191905f5260205f20905b81548152906001019060200180831161180a57829003601f168201915b505050505081526020016004820180546118409061268c565b80601f016020809104026020016040519081016040528092919081815260200182805461186c9061268c565b80156118b75780601f1061188e576101008083540402835291602001916118b7565b820191905f5260205f20905b81548152906001019060200180831161189a57829003601f168201915b5050509183525050600582015460208201526006820154604082015260078201546001600160a01b0316606082015260088201546080820152600982015460a0820152600a82015460ff808216151560c08401526101009182900416151560e0830152600b909201549101529392505050565b815f8111801561193c57506002548111155b6119585760405162461bcd60e51b815260040161064e906126be565b5f8381526004602052604090206001015483906001600160a01b031633146119b95760405162461bcd60e51b81526020600482015260146024820152732737ba1031b0b6b830b4b3b71031b932b0ba37b960611b604482015260640161064e565b5f84815260046020526040902083158015906119d65750601e8411155b611a225760405162461bcd60e51b815260206004820152601760248201527f43616e20657874656e6420627920312d33302064617973000000000000000000604482015260640161064e565b611a2f846201518061284c565b816009015f828254611a41919061270c565b9091555050600981015460405190815285907f82af348969d5c135dd3d4575b63546e69ae5b40a4eead1ffcaff306ad0b6939e9060200160405180910390a25050505050565b6005602052815f5260405f208181548110611aa0575f80fd5b5f91825260209091206004909102018054600182015460028301546003840180546001600160a01b0390941696509194509291611adc9061268c565b80601f0160208091040260200160405190810160405280929190818152602001828054611b089061268c565b8015611b535780601f10611b2a57610100808354040283529160200191611b53565b820191905f5260205f20905b815481529060010190602001808311611b3657829003601f168201915b5050505050905084565b5f815f81118015611b7057506002548111155b611b8c5760405162461bcd60e51b815260040161064e906126be565b5f83815260046020908152604080832081516101a0810183528154815260018201546001600160a01b0316938101939093526002810180549192840191611bd29061268c565b80601f0160208091040260200160405190810160405280929190818152602001828054611bfe9061268c565b8015611c495780601f10611c2057610100808354040283529160200191611c49565b820191905f5260205f20905b815481529060010190602001808311611c2c57829003601f168201915b50505050508152602001600382018054611c629061268c565b80601f0160208091040260200160405190810160405280929190818152602001828054611c8e9061268c565b8015611cd95780601f10611cb057610100808354040283529160200191611cd9565b820191905f5260205f20905b815481529060010190602001808311611cbc57829003601f168201915b50505050508152602001600482018054611cf29061268c565b80601f0160208091040260200160405190810160405280929190818152602001828054611d1e9061268c565b8015611d695780601f10611d4057610100808354040283529160200191611d69565b820191905f5260205f20905b815481529060010190602001808311611d4c57829003601f168201915b5050509183525050600582015460208201526006820154604082015260078201546001600160a01b0316606082015260088201546080820152600982015460a080830191909152600a83015460ff808216151560c08501526101009182900416151560e0840152600b9093015492909101919091528101519091505f03611df3575f925050610bac565b60a081015160c0820151611e0890606461284c565b611e129190612887565b92506064831115611e2257606492505b5050919050565b5f825f81118015611e3c57506002548111155b611e585760405162461bcd60e51b815260040161064e906126be565b50505f9182526006602090815260408084206001600160a01b0393909316845291905290205490565b5f81815260046020908152604080832081516101a0810183528154815260018201546001600160a01b03169381019390935260028101805485949384019190611ec99061268c565b80601f0160208091040260200160405190810160405280929190818152602001828054611ef59061268c565b8015611f405780601f10611f1757610100808354040283529160200191611f40565b820191905f5260205f20905b815481529060010190602001808311611f2357829003601f168201915b50505050508152602001600382018054611f599061268c565b80601f0160208091040260200160405190810160405280929190818152602001828054611f859061268c565b8015611fd05780601f10611fa757610100808354040283529160200191611fd0565b820191905f5260205f20905b815481529060010190602001808311611fb357829003601f168201915b50505050508152602001600482018054611fe99061268c565b80601f01602080910402602001604051908101604052809291908181526020018280546120159061268c565b80156120605780601f1061203757610100808354040283529160200191612060565b820191905f5260205f20905b81548152906001019060200180831161204357829003601f168201915b5050509183525050600582015460208201526006820154604082015260078201546001600160a01b0316606082015260088201546080820152600982015460a0820152600a82015460ff808216151560c08401526101009182900416151560e0830152600b9092015491015261014081015190915080156120e657508061012001514211155b80156120f55750806101600151155b9392505050565b6007602052815f5260405f208181548110612115575f80fd5b5f918252602090912001546001600160a01b03169150829050565b5f60208284031215612140575f5ffd5b5035919050565b5f81518084528060208401602086015e5f602082860101526020601f19601f83011685010191505092915050565b8d81526001600160a01b038d1660208201526101a0604082018190525f9061219f9083018e612147565b82810360608401526121b1818e612147565b905082810360808401526121c5818d612147565b9150508960a08301528860c08301526121e960e08301896001600160a01b03169052565b866101008301528561012083015261220661014083018615159052565b92151561016082015261018001529b9a5050505050505050505050565b634e487b7160e01b5f52604160045260245ffd5b5f82601f830112612246575f5ffd5b813567ffffffffffffffff81111561226057612260612223565b604051601f8201601f19908116603f0116810167ffffffffffffffff8111828210171561228f5761228f612223565b6040528181528382016020018510156122a6575f5ffd5b816020850160208301375f918101602001919091529392505050565b5f5f5f606084860312156122d4575f5ffd5b8335925060208401359150604084013567ffffffffffffffff8111156122f8575f5ffd5b61230486828701612237565b9150509250925092565b602080825282518282018190525f918401906040840190835b8181101561234e5783516001600160a01b0316835260209384019390920191600101612327565b509095945050505050565b80356001600160a01b038116811461236f575f5ffd5b919050565b5f5f5f5f5f5f60c08789031215612389575f5ffd5b863567ffffffffffffffff81111561239f575f5ffd5b6123ab89828a01612237565b965050602087013567ffffffffffffffff8111156123c7575f5ffd5b6123d389828a01612237565b955050604087013567ffffffffffffffff8111156123ef575f5ffd5b6123fb89828a01612237565b9450506060870135925061241160808801612359565b9598949750929591949360a090920135925050565b5f5f60408385031215612437575f5ffd5b8235915061244760208401612359565b90509250929050565b5f602082016020835280845180835260408501915060408160051b8601019250602086015f5b828110156124db57868503603f19018452815180516001600160a01b0316865260208082015190870152604080820151908701526060908101516080918701829052906124c590870182612147565b9550506020938401939190910190600101612476565b50929695505050505050565b60208152815160208201525f602083015161250d60408401826001600160a01b03169052565b5060408301516101a060608401526125296101c0840182612147565b90506060840151601f198483030160808501526125468282612147565b9150506080840151601f198483030160a08501526125648282612147565b91505060a084015160c084015260c084015160e084015260e08401516125966101008501826001600160a01b03169052565b506101008401516101208401526101208401516101408401526101408401516125c461016085018215159052565b50610160840151801515610180850152506101808401516101a08401528091505092915050565b5f5f604083850312156125fc575f5ffd5b50508035926020909101359150565b60018060a01b0385168152836020820152826040820152608060608201525f6126376080830184612147565b9695505050505050565b5f60208284031215612651575f5ffd5b815180151581146120f5575f5ffd5b634e487b7160e01b5f52601160045260245ffd5b5f6001820161268557612685612660565b5060010190565b600181811c908216806126a057607f821691505b602082108103610bac57634e487b7160e01b5f52602260045260245ffd5b60208082526017908201527f43616d706169676e20646f6573206e6f74206578697374000000000000000000604082015260600190565b5f60208284031215612705575f5ffd5b5051919050565b8082018082111561271f5761271f612660565b92915050565b601f82111561276c57805f5260205f20601f840160051c8101602085101561274a5750805b601f840160051c820191505b81811015612769575f8155600101612756565b50505b505050565b815167ffffffffffffffff81111561278b5761278b612223565b61279f81612799845461268c565b84612725565b6020601f8211600181146127d1575f83156127ba5750848201515b5f19600385901b1c1916600184901b178455612769565b5f84815260208120601f198516915b8281101561280057878501518255602094850194600190920191016127e0565b508482101561281d57868401515f19600387901b60f8161c191681555b50505050600190811b01905550565b828152604060208201525f6128446040830184612147565b949350505050565b808202811582820484141761271f5761271f612660565b606081525f6128756060830186612147565b60208301949094525060400152919050565b5f826128a157634e487b7160e01b5f52601260045260245ffd5b50049056fea26469706673582212202db26841028b048f35cf3ee36d416f70ea3d10ded5a7da562e63f64835e05c2164736f6c634300081e0033",
  "linkReferences": {},
  "deployedLinkReferences": {},
  "immutableReferences": {},
  "inputSourceName": "project/contracts/charity.sol",
  "buildInfoId": "solc-0_8_30-df985a6e0cfd3d0ee1a63eb0f424a3952b29f30e"
}