{
  "_format": "hh3-artifact-1",
  "contractName": "IDRXToken",
  "sourceName": "contracts/mockIDRX.sol",
  "abi": [
    {
      "inputs": [],
      "stateMutability": "nonpayable",
      "type": "constructor"
    },
    {
      "anonymous": false,
      "inputs": [
        {
          "indexed": true,
          "internalType": "address",
          "name": "owner",
          "type": "address"
        },
        {
          "indexed": true,
          "internalType": "address",
          "name": "spender",
          "type": "address"
        },
        {
          "indexed": false,
          "internalType": "uint256",
          "name": "value",
          "type": "uint256"
        }
      ],
      "name": "Approval",
      "type": "event"
    },
    {
      "anonymous": false,
      "inputs": [
        {
          "indexed": true,
          "internalType": "address",
          "name": "from",
          "type": "address"
        },
        {
          "indexed": true,
          "internalType": "address",
          "name": "to",
          "type": "address"
        },
        {
          "indexed": false,
          "internalType": "uint256",
          "name": "value",
          "type": "uint256"
        }
      ],
      "name": "Transfer",
      "type": "event"
    },
    {
      "inputs": [
        {
          "internalType": "address",
          "name": "owner",
          "type": "address"
        },
        {
          "internalType": "address",
          "name": "spender",
          "type": "address"
        }
      ],
      "name": "allowance",
      "outputs": [
        {
          "internalType": "uint256",
          "name": "",
          "type": "uint256"
        }
      ],
      "stateMutability": "view",
      "type": "function"
    },
    {
      "inputs": [
        {
          "internalType": "address",
          "name": "spender",
          "type": "address"
        },
        {
          "internalType": "uint256",
          "name": "value",
          "type": "uint256"
        }
      ],
      "name": "approve",
      "outputs": [
        {
          "internalType": "bool",
          "name": "",
          "type": "bool"
        }
      ],
      "stateMutability": "nonpayable",
      "type": "function"
    },
    {
      "inputs": [
        {
          "internalType": "address",
          "name": "account",
          "type": "address"
        }
      ],
      "name": "balanceOf",
      "outputs": [
        {
          "internalType": "uint256",
          "name": "",
          "type": "uint256"
        }
      ],
      "stateMutability": "view",
      "type": "function"
    },
    {
      "inputs": [
        {
          "internalType": "address[]",
          "name": "recipients",
          "type": "address[]"
        },
        {
          "internalType": "uint256[]",
          "name": "values",
          "type": "uint256[]"
        }
      ],
      "name": "batchTransfer",
      "outputs": [
        {
          "internalType": "bool",
          "name": "",
          "type": "bool"
        }
      ],
      "stateMutability": "nonpayable",
      "type": "function"
    },
    {
      "inputs": [],
      "name": "decimals",
      "outputs": [
        {
          "internalType": "uint8",
          "name": "",
          "type": "uint8"
        }
      ],
      "stateMutability": "view",
      "type": "function"
    },
    {
      "inputs": [
        {
          "internalType": "address",
          "name": "spender",
          "type": "address"
        },
        {
          "internalType": "uint256",
          "name": "subtractedValue",
          "type": "uint256"
        }
      ],
      "name": "decreaseAllowance",
      "outputs": [
        {
          "internalType": "bool",
          "name": "",
          "type": "bool"
        }
      ],
      "stateMutability": "nonpayable",
      "type": "function"
    },
    {
      "inputs": [
        {
          "internalType": "address",
          "name": "spender",
          "type": "address"
        },
        {
          "internalType": "uint256",
          "name": "addedValue",
          "type": "uint256"
        }
      ],
      "name": "increaseAllowance",
      "outputs": [
        {
          "internalType": "bool",
          "name": "",
          "type": "bool"
        }
      ],
      "stateMutability": "nonpayable",
      "type": "function"
    },
    {
      "inputs": [
        {
          "internalType": "address",
          "name": "to",
          "type": "address"
        },
        {
          "internalType": "uint256",
          "name": "value",
          "type": "uint256"
        }
      ],
      "name": "mint",
      "outputs": [],
      "stateMutability": "nonpayable",
      "type": "function"
    },
    {
      "inputs": [],
      "name": "name",
      "outputs": [
        {
          "internalType": "string",
          "name": "",
          "type": "string"
        }
      ],
      "stateMutability": "view",
      "type": "function"
    },
    {
      "inputs": [],
      "name": "symbol",
      "outputs": [
        {
          "internalType": "string",
          "name": "",
          "type": "string"
        }
      ],
      "stateMutability": "view",
      "type": "function"
    },
    {
      "inputs": [],
      "name": "totalSupply",
      "outputs": [
        {
          "internalType": "uint256",
          "name": "",
          "type": "uint256"
        }
      ],
      "stateMutability": "view",
      "type": "function"
    },
    {
      "inputs": [
        {
          "internalType": "address",
          "name": "to",
          "type": "address"
        },
        {
          "internalType": "uint256",
          "name": "value",
          "type": "uint256"
        }
      ],
      "name": "transfer",
      "outputs": [
        {
          "internalType": "bool",
          "name": "",
          "type": "bool"
        }
      ],
      "stateMutability": "nonpayable",
      "type": "function"
    },
    {
      "inputs": [
        {
          "internalType": "address",
          "name": "from",
          "type": "address"
        },
        {
          "internalType": "address",
          "name": "to",
          "type": "address"
        },
        {
          "internalType": "uint256",
          "name": "value",
          "type": "uint256"
        }
      ],
      "name": "transferFrom",
      "outputs": [
        {
          "internalType": "bool",
          "name": "",
          "type": "bool"
        }
      ],
      "stateMutability": "nonpayable",
      "type": "function"
    }
  ],
  "bytecode": "0x608060405234801561000f575f5ffd5b5060408051808201909152600f81526e26b7b1b59024a2292c102a37b5b2b760891b60208201525f906100429082610203565b5060408051808201909152600481526309288a4b60e31b602082015260019061006b9082610203565b506002805460ff191660129081179091555f9061008990600a6103b6565b61009690620f42406103c8565b90506100a233826100a8565b506103f2565b6001600160a01b0382166101025760405162461bcd60e51b815260206004820152601f60248201527f45524332303a206d696e7420746f20746865207a65726f206164647265737300604482015260640160405180910390fd5b8060055f82825461011391906103df565b90915550506001600160a01b0382165f818152600360209081526040808320805486019055518481527fddf252ad1be2c89b69c2b068fc378daa952ba7f163c4a11628f55a4df523b3ef910160405180910390a35050565b634e487b7160e01b5f52604160045260245ffd5b600181811c9082168061019357607f821691505b6020821081036101b157634e487b7160e01b5f52602260045260245ffd5b50919050565b601f8211156101fe57805f5260205f20601f840160051c810160208510156101dc5750805b601f840160051c820191505b818110156101fb575f81556001016101e8565b50505b505050565b81516001600160401b0381111561021c5761021c61016b565b6102308161022a845461017f565b846101b7565b6020601f821160018114610262575f831561024b5750848201515b5f19600385901b1c1916600184901b1784556101fb565b5f84815260208120601f198516915b828110156102915787850151825560209485019460019092019101610271565b50848210156102ae57868401515f19600387901b60f8161c191681555b50505050600190811b01905550565b634e487b7160e01b5f52601160045260245ffd5b6001815b600184111561030c578085048111156102f0576102f06102bd565b60018416156102fe57908102905b60019390931c9280026102d5565b935093915050565b5f82610322575060016103b0565b8161032e57505f6103b0565b8160018114610344576002811461034e5761036a565b60019150506103b0565b60ff84111561035f5761035f6102bd565b50506001821b6103b0565b5060208310610133831016604e8410600b841016171561038d575081810a6103b0565b6103995f1984846102d1565b805f19048211156103ac576103ac6102bd565b0290505b92915050565b5f6103c18383610314565b9392505050565b80820281158282048414176103b0576103b06102bd565b808201808211156103b0576103b06102bd565b610aff806103ff5f395ff3fe608060405234801561000f575f5ffd5b50600436106100cb575f3560e01c806340c10f191161008857806395d89b411161006357806395d89b41146101b7578063a457c2d7146101bf578063a9059cbb146101d2578063dd62ed3e146101e5575f5ffd5b806340c10f191461016757806370a082311461017c57806388d695b2146101a4575f5ffd5b806306fdde03146100cf578063095ea7b3146100ed57806318160ddd1461011057806323b872dd14610122578063313ce567146101355780633950935114610154575b5f5ffd5b6100d761021d565b6040516100e491906108a7565b60405180910390f35b6101006100fb3660046108f7565b6102a8565b60405190151581526020016100e4565b6005545b6040519081526020016100e4565b61010061013036600461091f565b6102be565b6002546101429060ff1681565b60405160ff90911681526020016100e4565b6101006101623660046108f7565b6102df565b61017a6101753660046108f7565b61031a565b005b61011461018a366004610959565b6001600160a01b03165f9081526003602052604090205490565b6101006101b23660046109c1565b610328565b6100d76103e4565b6101006101cd3660046108f7565b6103f1565b6101006101e03660046108f7565b61047f565b6101146101f3366004610a2d565b6001600160a01b039182165f90815260046020908152604080832093909416825291909152205490565b5f805461022990610a5e565b80601f016020809104026020016040519081016040528092919081815260200182805461025590610a5e565b80156102a05780601f10610277576101008083540402835291602001916102a0565b820191905f5260205f20905b81548152906001019060200180831161028357829003601f168201915b505050505081565b5f6102b433848461048b565b5060015b92915050565b5f6102ca8433846105ae565b6102d584848461063e565b5060019392505050565b335f8181526004602090815260408083206001600160a01b038716845290915281205490916102b4918590610315908690610a96565b61048b565b61032482826107e8565b5050565b5f83821461037d5760405162461bcd60e51b815260206004820152601c60248201527f494452583a20617272617973206c656e677468206d69736d617463680000000060448201526064015b60405180910390fd5b5f5b848110156103d8576103d03387878481811061039d5761039d610ab5565b90506020020160208101906103b29190610959565b8686858181106103c4576103c4610ab5565b9050602002013561063e565b60010161037f565b50600195945050505050565b6001805461022990610a5e565b335f9081526004602090815260408083206001600160a01b0386168452909152812054828110156104725760405162461bcd60e51b815260206004820152602560248201527f45524332303a2064656372656173656420616c6c6f77616e63652062656c6f77604482015264207a65726f60d81b6064820152608401610374565b6102d5338585840361048b565b5f6102b433848461063e565b6001600160a01b0383166104ed5760405162461bcd60e51b8152602060048201526024808201527f45524332303a20617070726f76652066726f6d20746865207a65726f206164646044820152637265737360e01b6064820152608401610374565b6001600160a01b03821661054e5760405162461bcd60e51b815260206004820152602260248201527f45524332303a20617070726f766520746f20746865207a65726f206164647265604482015261737360f01b6064820152608401610374565b6001600160a01b038381165f8181526004602090815260408083209487168084529482529182902085905590518481527f8c5be1e5ebec7d5bd14f71427d1e84f3dd0314c0f7b2291e5b200ac8c7c3b925910160405180910390a3505050565b6001600160a01b038084165f908152600460209081526040808320938616835292905220545f198114610638578181101561062b5760405162461bcd60e51b815260206004820152601d60248201527f45524332303a20696e73756666696369656e7420616c6c6f77616e63650000006044820152606401610374565b610638848484840361048b565b50505050565b6001600160a01b0383166106a25760405162461bcd60e51b815260206004820152602560248201527f45524332303a207472616e736665722066726f6d20746865207a65726f206164604482015264647265737360d81b6064820152608401610374565b6001600160a01b0382166107045760405162461bcd60e51b815260206004820152602360248201527f45524332303a207472616e7366657220746f20746865207a65726f206164647260448201526265737360e81b6064820152608401610374565b6001600160a01b0383165f908152600360205260409020548181101561077b5760405162461bcd60e51b815260206004820152602660248201527f45524332303a207472616e7366657220616d6f756e7420657863656564732062604482015265616c616e636560d01b6064820152608401610374565b6001600160a01b038085165f8181526003602052604080822086860390559286168082529083902080548601905591517fddf252ad1be2c89b69c2b068fc378daa952ba7f163c4a11628f55a4df523b3ef906107da9086815260200190565b60405180910390a350505050565b6001600160a01b03821661083e5760405162461bcd60e51b815260206004820152601f60248201527f45524332303a206d696e7420746f20746865207a65726f2061646472657373006044820152606401610374565b8060055f82825461084f9190610a96565b90915550506001600160a01b0382165f818152600360209081526040808320805486019055518481527fddf252ad1be2c89b69c2b068fc378daa952ba7f163c4a11628f55a4df523b3ef910160405180910390a35050565b602081525f82518060208401528060208501604085015e5f604082850101526040601f19601f83011684010191505092915050565b80356001600160a01b03811681146108f2575f5ffd5b919050565b5f5f60408385031215610908575f5ffd5b610911836108dc565b946020939093013593505050565b5f5f5f60608486031215610931575f5ffd5b61093a846108dc565b9250610948602085016108dc565b929592945050506040919091013590565b5f60208284031215610969575f5ffd5b610972826108dc565b9392505050565b5f5f83601f840112610989575f5ffd5b50813567ffffffffffffffff8111156109a0575f5ffd5b6020830191508360208260051b85010111156109ba575f5ffd5b9250929050565b5f5f5f5f604085870312156109d4575f5ffd5b843567ffffffffffffffff8111156109ea575f5ffd5b6109f687828801610979565b909550935050602085013567ffffffffffffffff811115610a15575f5ffd5b610a2187828801610979565b95989497509550505050565b5f5f60408385031215610a3e575f5ffd5b610a47836108dc565b9150610a55602084016108dc565b90509250929050565b600181811c90821680610a7257607f821691505b602082108103610a9057634e487b7160e01b5f52602260045260245ffd5b50919050565b808201808211156102b857634e487b7160e01b5f52601160045260245ffd5b634e487b7160e01b5f52603260045260245ffdfea26469706673582212208558d3584097a86f4621e091a41864d4990bc3d0ed6d164f382884cd937dc5aa64736f6c634300081e0033",
  "linkReferences": {},
  "deployedLinkReferences": {},
  "immutableReferences": {},
  "inputSourceName": "project/contracts/mockIDRX.sol",
  "buildInfoId": "solc-0_8_30-85f815f616a41f9cd3aa197c05868ecc3ccb8794"
}